:100000000C94D4000C94FC000C94FC000C94FC00A8
:100010000C94FC000C94FC000C94FC000C94FC0070
:100020000C94FC000C94FC000C94C9070C94380848
:100030000C94FC000C94FC000C94FC000C94FC0050
:100040000C94FC000C94FC000C94FC000C94FC0040
:100050000C94FC000C94FC000C94FC000C946A0AB8
:100060000C94FC000C94FC000C94FC000C94FC0020
:100070000C94FC000C94FC000C94FC000C94FC0010
:100080000C94FC000C94FC000C94FC000C94FC0000
:100090000C94B40A0C94FC000C94FC000C94FC002E
:1000A0000C94FC000C94FC000C94FC00000000007C
:1000B000240027002A002D00300000000000250049
:1000C00028002B002E003100080B00020202000065
:1000D00009040000010202000005240010010524AB
:1000E000010101042402060524060001070581031D
:1000F00010004009040100020A0000000705020286
:1001000040000007058302400000040309041201B7
:100110000002EF0201404123378000010102030188
:1001200041726475696E6F204C4C43004172647576
:10013000696E6F204D6963726F000000000023003C
:10014000260029002C002F000404040404030405E5
:100150000202020204030202020206060606060664
:10016000040402020204040408020110408040104A
:1001700020408040800802040180402010020110CD
:100180008010204040200000000200090F00000302
:100190000401000C0000000000000000000000004E
:1001A000000000000000D30B11241FBECFEFDAE0E7
:1001B000DEBFCDBF11E0A0E0B1E0EAE7FFE102C0A1
:1001C00005900D92AA39B107D9F723E0AAE9B1E069
:1001D00001C01D92A732B207E1F710E0C4EDD0E0F4
:1001E00004C02197FE010E94B50FC33DD107C9F796
:1001F0000E94150C0C94BB0F0C940000FC01809124
:100200007802882311F13FB7F89482E08093E900E7
:100210002091F200822F90E01816190614F481E064
:1002200090E0882339F0289A44E640937702409181
:10023000F1004083222339F02091F200211103C004
:100240002BE62093E8003FBF08958FEF9FEF0895BE
:100250002FB7F89483E08093E9009091E800892F0C
:10026000807295FF04C09091F20080E4891B2FBF3B
:10027000089580916F0281110DC082E080936B021E
:1002800084E080936C0210926E0210926D0281E005
:1002900080936F028BE692E0089540916502509141
:1002A0006602209163023091640242175307B4F44E
:1002B0009091E8009570E1F39091E80092FD19C0EB
:1002C0008093F100809165029091660201968F7390
:1002D0009927892B19F48EEF8093E80080916502AD
:1002E000909166020196909366028093650281E088
:1002F000089580E00895EF92FF920F931F93CF939C
:10030000DF93F82E192FE62E042F81E0860F880F39
:100310000E944D0183E00E944D01CF2DD12FEC0EA4
:10032000FD2EF11CCE15DF05B9F007FF13C0FE014D
:1003300084910E944D01182F80E00E944D0181237D
:1003400021968111EFCFDF91CF911F910F91FF90F7
:10035000EF9008958881EDCF81E0F5CFDF92EF92A5
:10036000FF920F931F93CF93DF93D82E8A01EB0157
:100370007B01E40EF51ECE15DF0559F0D7FE12C045
:10038000FE0184910E944D0121968111F4CF0FEF5F
:100390001FEFC801DF91CF911F910F91FF90EF9058
:1003A000DF9008958881EECF0F931F93CF93DF9353
:1003B0001F92CDB7DEB782E0898342E450E068EC5B
:1003C00070E080E80E94AE010E943901DC011296C3
:1003D0000D911C910115110589F0D801ED91FC9149
:1003E0000280F381E02DBE016F5F7F4FC801099548
:1003F00097FD04C0F80100851185ECCF89810F902D
:10040000DF91CF911F910F910895615030F02091AD
:10041000F100FC0120830196F8CF289A84E68093AE
:1004200077020895AF92BF92CF92DF92EF92FF9240
:100430000F931F93CF93DF936C017B018B01040F0C
:10044000151FEB015E01AE18BF08C017D10759F0A8
:100450006991D601ED91FC910190F081E02DC601EA
:100460000995892B79F7C501DF91CF911F910F91E4
:10047000FF90EF90DF90CF90BF90AF9008950895D8
:1004800008950895CF93DF931F92CDB7DEB76983A8
:10049000DC01ED91FC910280F381E02D41E050E020
:1004A000BE016F5F7F4F09950F90DF91CF91089547
:1004B00083E08093E9008091F200882319F08AE3B9
:1004C0008093E80008950E94280190E00895CF935A
:1004D000DF931F92CDB7DEB7FC018485958597FD2C
:1004E00008C02FEF3FEF358724870F90DF91CF9122
:1004F0000895CE0101960E94FE00019719F48981AA
:1005000090E0F3CF8FEF9FEFF0CF0F931F93CF9338
:10051000DF931F92CDB7DEB78C01FC0184859585F2
:1005200097FF0BC0CE0101960E94FE00019771F467
:10053000898190E0F80195878487F8018485958505
:100540000F90DF91CF911F910F9108958FEF9FEF43
:10055000F1CFFC018485958597FD0BC09FB7F8947A
:1005600082E08093E9008091F2009FBF90E00196C5
:1005700008959FB7F89482E08093E9008091F2009B
:100580009FBF90E0089581508F3008F047C0E82F5A
:10059000F0E0E353FD4F0C94B50FEA02EE02DC02EB
:1005A000E202E6020E030E030E03F102F702FB0263
:1005B000FF0205030E030903809180008F7780936B
:1005C00080000895809180008F7DF9CF8091800018
:1005D000877FF5CF84B58F7784BD089584B58F7DEF
:1005E000FBCF809190008F77809390000895809149
:1005F00090008F7DF9CF80919000877FF5CF80911B
:10060000C0008F778093C00008958091C0008F7DD7
:10061000F9CF8091C200877F8093C20008951F9315
:10062000CF93DF93282F30E0F901EA57FE4F8491F2
:10063000F901E959FE4FD491F901E85BFE4FC491ED
:10064000CC23A9F0162F81110E94C302EC2FF0E0F9
:10065000EE0FFF1FE654FF4FA591B4918FB7F894AA
:10066000EC91111108C0D095DE23DC938FBFDF9190
:10067000CF911F910895DE2BF8CFCF93DF9390E0B9
:10068000FC01E959FE4F2491885B9E4FFC01849147
:100690008823D1F090E0880F991FFC01E455FF4FAB
:1006A000A591B491FC01E654FF4FC591D49161111D
:1006B0000EC09FB7F8948C91E22FE0958E238C9317
:1006C0002881E223E8839FBFDF91CF9108958FB700
:1006D000F894EC91E22BEC938FBFF6CF3FB7F894F0
:1006E0008091510290915202A0915302B091540214
:1006F00026B5A89B05C02F3F19F00196A11DB11D7D
:100700003FBFBA2FA92F982F8827BC01CD01620FB8
:10071000711D811D911D42E0660F771F881F991F73
:100720004A95D1F708958F929F92AF92BF92CF9240
:10073000DF92EF92FF924B015C010E946E036B010E
:100740007C010E946E036C197D098E099F09683E29
:10075000734081059105A8F321E0821A9108A10850
:10076000B10888EEC80E83E0D81EE11CF11C81148C
:100770009104A104B10429F7FF90EF90DF90CF908E
:10078000BF90AF909F908F9008958F929F92AF925D
:10079000BF92CF92DF92EF92FF920F931F93CF936E
:1007A000DF936C017B018A0180910B01882309F49E
:1007B0005CC080917802882309F457C08091690257
:1007C00080FF05C08091E00082608093E000E80136
:1007D000B12C8AEFA82E93E0892E2AE3922E20973F
:1007E00011F4BB20D9F10E94280181110AC0AA94FA
:1007F000AA20D9F161E070E080E090E00E949303CC
:10080000EECF8C171D0611F00CF08C2F9FB7F894CB
:100810008092E9002091E80025FD02C09FBFDFCF54
:10082000282F30E0C21BD30BF701815020F04191FB
:100830004093F100FACFE20EF31EBB2021F090921C
:10084000E800B12CEBCF8091E80085FDE7CF9092D6
:10085000E800BB24B394209709F3F3CF5D9A84E6B4
:1008600080936A02101611063CF081E090E0F601D8
:100870009383828310E000E0C801DF91CF911F9144
:100880000F91FF90EF90DF90CF90BF90AF909F902F
:100890008F9008952FB7F89460914D0270914E0299
:1008A00080914F02909150022FBF0895089520919A
:1008B000DB01260F3327331F21323105ECF4209161
:1008C0002402FC0190E080E0243069F082E0089589
:1008D000A091DB012191AC0145545E4FA40FB52FCF
:1008E000B11D2C930196861798F38091DB01680F58
:1008F0006093DB0180E0089581E008951092240266
:1009000081E0809323021092FE0161E082E00E9468
:100910000F0361E083E00E940F03E9EBF0E08081C8
:100920008E7F808380818D7F808388E48093B80070
:1009300085E48093BC000895CF93DF9391E090937A
:10094000BA018823B9F0C091B800D091BA00809163
:10095000BC008A7B8093BC0060E082E00E940F03B1
:1009600060E083E00E940F030E947E04D093BA00EF
:10097000C093B800DF91CF910895E0915C0280911F
:100980005B02E81730F4F0E0E656FE4F808190E01D
:1009900008958FEF9FEF089590915C0280915B0224
:1009A0002FEF3FEF981748F4E92FF0E0E656FE4F9F
:1009B000208130E09F5F90935C02C901089580918F
:1009C0005B0290915C02891B990B0895CF92DF9294
:1009D000EF92FF920F931F93CF93DF937C01CB0194
:1009E0008A0120912A02222389F0EB016B01C40EB7
:1009F000D51ECC15DD0569F06991D701ED91FC910B
:100A00000190F081E02DC7010995F3CF642F0E947A
:100A10005704C801DF91CF911F910F91FF90EF9084
:100A2000DF90CF900895CF93DF931F92CDB7DEB7BD
:100A3000698320912A022223F9F020915902203261
:100A400058F021E030E0FC013383228390E080E025
:100A50000F90DF91CF91089580915A02E82FF0E036
:100A6000E55DFD4F998190838F5F80935A0280935B
:100A7000590281E090E0ECCF61E0CE0101960E9446
:100A80005704F7CFCF92DF92EF92FF920F931F930D
:100A9000CF93DF93FC01C48121E020932A02C0930D
:100AA0004B0210925A02109259028385682B89ECEE
:100AB00092E00E941305D0915902D13208F092C001
:100AC0000E946E036B017C0180912402811165C03C
:100AD00082E08093240281E0809323028FEF809351
:100AE000220210922102D0932002ABE2B2E0E0E0B9
:100AF000F2E080E0D81385C01092FF018091FF01E1
:100B0000CC0FC82BC093FF018091FE01813009F00A
:100B10007CC01092FE010E946E036B017C018091EB
:100B2000FF018093BB008091260290912702A09143
:100B30002802B0912902892B8A2B8B2B99F00E94D5
:100B40006E03009126021091270220912802309115
:100B500029026C197D098E099F09061717072807B6
:100B60003907E0F18091BC0083FDD9CF85EC8093FB
:100B7000BC000E946E036B017C01809124028230D4
:100B800009F445C0809122028F3F61F180912202D9
:100B9000803241F18091220225C0809126029091FD
:100BA0002702A0912802B0912902892B8A2B8B2B36
:100BB00009F48ACF0E946E03009126021091270249
:100BC00020912802309129026C197D098E099F0914
:100BD000061717072807390708F076CF80912502F6
:100BE0000E949C0410925A021092590210922A02FA
:100BF000DF91CF911F910F91FF90EF90DF90CF90F9
:100C000008959D9191938F5F75CF85EEB0CF8091C0
:100C1000260290912702A0912802B0912902892BE7
:100C20008A2B8B2B09F4A9CF0E946E030091260218
:100C30001091270220912802309129026C197D0918
:100C40008E099F09061717072807390708F095CF5F
:100C5000C5CF90E080E008958F929F92AF92BF92AF
:100C6000CF92DF92EF92FF920F931F93CF93DF9378
:100C7000962E10E000E0B12CC82FD0E0CE018A57AC
:100C80009E4F7C01FE01E959FE4F6F01C85BDE4FAC
:100C900061E0892D0E940F03F7018491F601A49071
:100CA000FE018490882071F181110E94C302E82D19
:100CB000F0E0EE0FFF1FE65CFE4FA591B4918C9122
:100CC000A82231E009F430E0832F002E01C0880F04
:100CD0000A94EAF7B82A60E0892D0E940F030F5F9B
:100CE0001F4F08301105A1F68B2DDF91CF911F9179
:100CF0000F91FF90EF90DF90CF90BF90AF909F90BB
:100D00008F90089580E0E1CF0F931F93CF938C01D4
:100D1000C62F0E9442056C2F6460C8010E944205E4
:100D20006C2F6B7FC8010E94420583EC90E0019715
:100D3000F1F7CF911F910F9108950F931F93CF93C8
:100D4000DF938C01D62FC42F607F642B0E94840612
:100D500080E1D89FB00111246C2BC801DF91CF91A5
:100D60001F910F910C948406CF93DF93CDB7DEB71C
:100D700028970FB6F894DEBF0FBECDBF98E0ECE029
:100D8000F1E0DE01119601900D929A95E1F79091B4
:100D90002303981708F48FEF90E0880F991F21E044
:100DA00030E02C0F3D1F820F931FFC0160816E5FAE
:100DB000606840E08BE193E028960FB6F894DEBFC0
:100DC0000FBECDBFDF91CF910C949D0641E00E94F4
:100DD0009D0681E090E00895EF92FF920F931F939C
:100DE000CF93DF9300D000D0CDB7DEB789E792E094
:100DF0000E94670289E792E00E9467028E010F5FFE
:100E00001F4F78018A3341F0F80181938F0189E700
:100E100092E00E946702F6CFC7010E946D0F182F63
:100E200089E792E00E9467028053990B8230910516
:100E300020F4682F812F0E940F0389E792E00E941F
:100E400067028A3011F08D30C1F789E792E00E9485
:100E500085028A3021F489E792E00E9467020F90B0
:100E60000F900F900F90DF91CF911F910F91FF90F6
:100E7000EF900895FB0101900020E9F73197AF0151
:100E8000461B570BDC01ED91FC910280F381E02DB4
:100E900009948F929F92AF92BF920F931F93CF931B
:100EA000DF93CDB7DEB7A1970FB6F894DEBF0FBEC4
:100EB000CDBF19A2423008F44AE08E010F5D1F4FEA
:100EC000842E912CB12CA12CA50194010E94930F8A
:100ED000E62FB901CA01EA3004F5E05DD801EE93CE
:100EE0008D01232B242B252B79F790E080E01097A0
:100EF00029F0BD0189E792E00E943A07A1960FB65A
:100F0000F894DEBF0FBECDBFDF91CF911F910F913F
:100F1000BF90AF909F908F900895E95CDFCF0C94C5
:100F20003A0785ED8093BC008091260290912702BC
:100F3000A0912802B09129020796A11DB11D23E0BE
:100F4000B695A795979587952A95D1F72091BC00DE
:100F500024FD03C01092240208954091260250916E
:100F600027026091280270912902452B462B472BBE
:100F700069F30097A105B10541F025E32A95F1F742
:100F800000000197A109B109E1CF809125020C94DD
:100F90009C041F920F920FB60F9211248F939F9370
:100FA0008091E1009091E100937F9093E10083FFB5
:100FB0000FC01092E90091E09093EB001092EC00CA
:100FC00092E39093ED001092780298E09093F000F5
:100FD00082FF22C093E09093E9009091F200992360
:100FE00019F09AE39093E80090916A02992341F0F6
:100FF00090916A02915090936A02911101C05D989C
:1010000090917702992341F09091770291509093BB
:101010007702911101C0289884FF18C08091E200E6
:101020008E7E81608093E2008091E1008F7E8093CC
:10103000E100809169028E7E8061809369029F91B8
:101040008F910F900FBE0F901F90189580FFF7CFD4
:101050008091E2008E7E80618093E2008091E100C9
:101060008E7E8093E100809169028E7E8160E5CF63
:101070001F920F920FB60F921124CF92DF92EF9230
:10108000FF920F931F932F933F934F935F936F9311
:101090007F938F939F93AF93BF93EF93FF93CF93E0
:1010A000DF93CDB7DEB76C97DEBFCDBF1092E900FE
:1010B0008091E80083FF25C068E0CE0145960E943C
:1010C000050282EF8093E8008D8987FF39C09091F7
:1010D000E80090FFFCCF982F907609F034C19E89EC
:1010E0004F89588D2F89F88C911131C0803861F566
:1010F000809168028093F1001092F1008EEF80934E
:10110000E8006C960FB6F894DEBF0FBECDBFDF913E
:10111000CF91FF91EF91BF91AF919F918F917F916F
:101120006F915F914F913F912F911F910F91FF9080
:10113000EF90DF90CF900F900FBE0F901F901895FB
:101140009EEF9093E800C7CF1092F100D5CF913079
:1011500059F48111D3CF4130510581F68091680255
:101160008D7F80936802CACF933049F48111C6CF36
:101170004130510519F6809168028260F2CF9530B6
:1011800041F48091E80080FFFCCF20682093E300C9
:10119000B5CF963009F0A9C00B8D1C8D22E01092BE
:1011A000E9001092660210926502F2122EC01092AF
:1011B0006402109263020E94D4011F8299E0998315
:1011C000FA8291E09E8390EA98879AEF998720911E
:1011D000650230916602275F3F4F3C832B838D83EE
:1011E0001092E90010926602109265021093640258
:1011F0000093630249E050E0BE016F5F7F4F80E0E3
:101200000E94AE010E94D40179CF10936402009332
:1012100063020E943901DC0112960D911C910115A7
:10122000110509F451C1D801ED91FC910480F581BB
:10123000E02DBE016B5E7F4FC8010995009709F054
:101240003EC1F80100851185EACFF3E0FF120EC020
:101250008F89882309F440C0823061F440E86DE052
:101260008CE291E00E947B01811148CF81E2809362
:10127000EB0047CF813029F440E86BE080E291E059
:10128000F1CF833099F70E943901DC011296ED907D
:10129000FC908E010F5F1F4F6801E114F10479F09B
:1012A000D701ED91FC910680F781E02DB801C701CF
:1012B0000995080F111DF701E084F184EECFD801E4
:1012C0001C92F60101900020E9F73197BF016C19DB
:1012D0007D0940E0C601C6CF6AE071E0FB014491A0
:1012E00050E080E80E94AE0109CF973009F4BECFEC
:1012F000983021F481E08093F10000CF993009F01B
:10130000FDCE837009F0B2CFE5E1F1E081E031E09C
:1013100096E32191222371F08093E9003093EB0052
:10132000DF0111972C912093EC009093ED008F5FDB
:10133000873079F78EE78093EA001092EA008F8970
:1013400080937802DBCE8B8D9C8D1092E9001092F9
:101350006602109265029093640280936302898D05
:10136000811192C08E899D89913A49F4813209F0A8
:101370007DCF47E050E064E071E080E0B3CF913290
:1013800009F074CF833269F48F89988DB0E0A0E0C2
:101390008093000190930101A0930201B093030197
:1013A000ADCE803269F48091E80082FFFCCF67E027
:1013B00084E091E00E9405028BEF8093E8009ECECE
:1013C000823209F09BCE8F8980930B01EEEFFFE70D
:1013D000859194918B3F9C4D51F1E0E0F8E0809134
:1013E000040190910501A0910601B0910701803B95
:1013F0009440A105B105F1F480910B0180FD1AC064
:10140000EE3F8AE0F80789F587E797E791838083C5
:10141000809160008093670288E19BE00FB6F894AA
:10142000A895809360000FBE9093600067CEEEEFAA
:10143000FAE0D5CF808191818737974709F05ECE5A
:10144000A895809160008861809360008091670218
:1014500080936000EE3F2AE0F20789F08091FE0A57
:101460009091FF0A9183808349CE80819181873753
:10147000980751F29093FF0A8093FE0AC5CF10920D
:10148000FF0A1092FE0A3ACE0E943901DC01129640
:101490000D911C910115110509F4E8CED801ED91CB
:1014A000FC910190F081E02DBE016B5E7F4FC80181
:1014B0000995811123CEF80100851185EBCF18160F
:1014C00019060CF41BCED2CEF1E0FF12BECE6EE0B8
:1014D00071E004CF1F920F920FB60F9211242F9339
:1014E0003F938F939F93AF93BF9380914D029091C1
:1014F0004E02A0914F02B091500230914C0223E075
:10150000230F2D3758F50196A11DB11D20934C02D4
:1015100080934D0290934E02A0934F02B0935002DD
:101520008091510290915202A0915302B0915402C5
:101530000196A11DB11D8093510290935202A09378
:101540005302B0935402BF91AF919F918F913F91FD
:101550002F910F900FBE0F901F90189526E8230F24
:101560000296A11DB11DD2CF1F920F920FB60F92FE
:1015700011242F933F934F935F936F937F938F9398
:101580009F93AF93BF93EF93FF938091B900887FB0
:10159000803609F44AC0F0F5883209F4A7C018F57E
:1015A000803109F49BC0B8F4882309F4F9C088306D
:1015B00009F494C0FF91EF91BF91AF919F918F91EA
:1015C0007F916F915F914F913F912F910F900FBE3F
:1015D0000F901F901895883109F488C0803251F718
:1015E0008093220214C0803409F49DC040F48033FB
:1015F000B9F38833F9F68093220285ECB0C08035C8
:1016000009F485C0883509F496C0883499F60E949B
:101610009107D0CF883909F48CC038F5883729F084
:1016200050F4883611F0803729F683E08093240245
:101630001092FD0157C0883809F47BC0803919F039
:10164000803809F0B7CF8091FD01803208F071C079
:10165000E091FD0181E08E0F8093FD018091BB0040
:10166000F0E0E352FE4F80833DC0803B39F0E0F470
:10167000803A09F479C0883A09F09CCF84E08093DD
:1016800024021092DC011092DB01E0915702F091EC
:10169000580209958091DB0181110FC081E0809390
:1016A000DB011092BB0109C0803C09F4A6CF883C45
:1016B00009F4A3CF883B09F07DCFE091DC0181E004
:1016C0008E0F8093DC01F0E0E554FE4F8081809323
:1016D000BB009091DC018091DB0129C08091FF016A
:1016E0008093BB0085EC8093BC0064CF9091210275
:1016F00080912002981758F5E091210281E08E0F29
:1017000080932102F0E0E050FE4F8081E9CFE0912C
:10171000210281E08E0F809321028091BB00F0E0D6
:10172000E050FE4F80839091210280912002981713
:10173000C8F285E8D8CFE091210281E08E0F809336
:1017400021028091BB00F0E0E050FE4F8083809149
:10175000230281115CCF81E08093FE0184EA8093B3
:10176000BC001092240226CF85EC8093BC0010921E
:1017700024028091FD01803230F4E091FD01F0E01F
:10178000E352FE4F10826091FD0170E0E09155023E
:10179000F09156028DED91E009951092FD010ACF6E
:1017A0001092220234CFE9E7F2E01382128288EE2F
:1017B00093E0A0E0B0E084839583A683B7832FE114
:1017C00031E0318320832FEF3FEF35872487E9EC29
:1017D000F2E01382128284839583A683B78381E328
:1017E00091E091838083E5EDF2E016821782108606
:1017F0001186128613861486158616861786108A19
:10180000118A128A138A148A158AEBE1F3E0138293
:10181000128283E491E09183808387E2848380E174
:10182000818782E0828713860895789484B58260E8
:1018300084BD84B5816084BD85B5826085BD85B574
:10184000816085BD80916E00816080936E001092F2
:10185000810080918100826080938100809181006D
:1018600081608093810080918000816080938000FE
:1018700080919100826080939100809191008160BD
:10188000809391008091900081608093900080917E
:10189000C10084608093C1008091C1008260809308
:1018A000C1008091C10081608093C1008091C3001C
:1018B00081608093C3008091C00082608093C000EB
:1018C0008091C20081608093C20080917A00846020
:1018D00080937A0080917A00826080937A00809170
:1018E0007A00816080937A0080917A00806880938A
:1018F0007A00109278021092680210926902809128
:10190000D70081608093D70080EA8093D80089B5A2
:10191000806189BD89B5826089BD09B400FEFDCFB3
:1019200061E070E080E090E00E9493038091D80035
:101930008F7C80618093D8008091E000807F8093CD
:10194000E0008091E1008E7E8093E1008DE0809345
:10195000E200559A209A5D982898109217031092E9
:1019600018031092190310921A031092D7021092C2
:10197000D8021092D9021092DA020E944A046B0136
:101980007C014B015C0128EB820E2BE0921EA11C16
:10199000B11C0E944A046C157D058E059F0528F038
:1019A00086169706A806B906A0F768EE73E080E0F1
:1019B00090E00E9493038FEF9FEF909386028093B5
:1019C00085020E944A046093D7027093D8028093E4
:1019D000D9029093DA026BE471E089E792E00E9409
:1019E0008F070E944A046B017C014B015C013AE0C5
:1019F000830E911CA11CB11C0E944A046C157D052C
:101A00008E059F0528F086169706A806B906A0F74A
:101A100081E08093EB020E944A046093D7027093A6
:101A2000D8028093D9029093DA026CE571E089E7DD
:101A300092E00E948F078FEF9FEF90938602809332
:101A4000850260E082E10E943D0360E083E10E9444
:101A50003D0360E084E10E943D0360E085E10E9477
:101A60003D0361E081E00E943D0361E084E00E946B
:101A70003D0361E086E00E943D0360E085E00E9456
:101A80003D0310925C0210925B0210925A02109277
:101A900059020E947E0480E492E090935802809361
:101AA000570281E492E0909356028093550210927F
:101AB000200380912503823018F098E09093200352
:101AC0008093230362E370E080E090E00E94930340
:101AD000609126038BE193E00E94420568EE73E07B
:101AE00080E090E00E94930360E38BE193E00E942A
:101AF0008406CBE4D6E4CE010197F1F760E38BE1F5
:101B000093E00E9484062197F1F760E38BE193E074
:101B10000E94840683E592E00197F1F760E28BE191
:101B200093E00E94840660912003606240E08BE1B4
:101B300093E00E949D0684E08093210340E06CE0E6
:101B40008BE193E00E949D0640E061E08BE193E031
:101B50000E949D06CBE3DFE1CE010197F1F782E021
:101B60008093220340E066E08BE193E00E949D06B3
:101B700040E062E08BE193E00E949D062197F1F73F
:101B800088E08093260360E08BE193E00E944205A9
:101B9000CFE0D0E08BE3282E8FE1382E00E010E07C
:101BA00094EF492E55245394612C712C0E944A04C1
:101BB000672B682B692B09F4FEC00E944A04C09071
:101BC0005F02D0906002E0906102F09062026C15BA
:101BD0007D058E059F0508F477C1C0905F02D09007
:101BE0006002E0906102F09062029B01AC012C194E
:101BF0003D094E095F0969017A013AEFC316D10424
:101C0000E104F10408F4DFC060935F0270936002A6
:101C100080936102909362024092E3025092E40248
:101C20006092E5027092E6021092E7021092E802DA
:101C30001092E9021092EA028091DB029091DC029C
:101C4000A091DD02B091DE028093DF029093E0026A
:101C5000A093E102B093E2020E944A046093DB0287
:101C60007093DC028093DD029093DE0289E792E0BC
:101C70000E948502843611F40E94EC060E944A04F8
:101C80006093D7027093D8028093D9029093DA02BE
:101C90000E944A046B017C0163E671E089E792E0EF
:101CA0000E948F074AE061E070E080E090E00E94CF
:101CB00049076AE671E089E792E00E948F074AE0EF
:101CC000C701B6010E9449076CE671E089E792E01E
:101CD0000E948F078091DB029091DC02A091DD02CF
:101CE000B091DE02A7019601281B390B4A0B5B0B52
:101CF000CA01B9014AE00E9449076CE671E089E730
:101D000092E00E948F076091DB027091DC0280916B
:101D1000DD029091DE02C090DF02D090E002E09000
:101D2000E102F090E2026C197D098E099F094AE0F8
:101D30000E9449076EE671E089E792E00E948F07F2
:101D40000E944A044AE00E94490760E771E089E77F
:101D500092E00E943A0767E971E089E792E00E9409
:101D60003A070E944A046B017C014B015C0132E09E
:101D7000830E911CA11CB11C0E944A046C157D05A8
:101D80008E059F0528F086169706A806B906A0F7C7
:101D900089E792E00E948502843611F40E94EC06E5
:101DA0000E944A046093DB027093DC028093DD02A0
:101DB0009093DE0208C00E944A04623071058105DA
:101DC000910508F0FACE60E081E00E940F03CE0199
:101DD0000197F1F761E081E00E940F03CE010197C6
:101DE000F1F761E086E00E940F0360E084E00E946A
:101DF0000F0366E085E00E942C0680935E0266E099
:101E000085E00E942C0680935D0261E084E00E94E0
:101E10000F0380E00E94B40667E771E08BE193E076
:101E20000E948F0781E00E94B40664E871E08BE1B4
:101E300093E00E948F07609121036D7F60932103DF
:101E4000686040E08BE193E00E949D0668EE73E0DD
:101E500080E090E00E94930340E061E08BE193E03A
:101E60000E949D06C1010197F1F768EE73E080E0E2
:101E700090E00E9493036CE871E089E792E00E9491
:101E80008F0760915E0270E090E080E042E00E9487
:101E9000490760915D0270E090E080E042E00E94BE
:101EA000490767E971E089E792E00E943A0768EC28
:101EB00070E080E090E00E9493030115110509F4A1
:101EC00075CE0E94000072CE60935F027093600234
:101ED000809361029093620280CEFC01882799274B
:101EE000E89421912032E9F3293010F02E30C8F324
:101EF0002B3241F02D3239F4689404C00E948B0FCC
:101F0000820F911D219120532A30C0F31EF4909529
:101F100081959F4F08957AE0979F902D879F802D00
:101F2000910D11240895A1E21A2EAA1BBB1BFD01DD
:101F30000DC0AA1FBB1FEE1FFF1FA217B307E407A8
:101F4000F50720F0A21BB30BE40BF50B661F771F00
:101F5000881F991F1A9469F76095709580959095E0
:101F60009B01AC01BD01CF010895EE0FFF1F05904D
:0A1F7000F491E02D0994F894FFCFDE
:101F7A00FFFFFFFF00E1000000000000000040003A
:101F8A001400540000C180810000000000000042DB
:101F9A0002C50363025802A9026702850200000013
:101FAA00001305E60429063F02DF04CC04BD040041
:101FBA00000000E606120229065604564D44505601
:101FCA005F317C315F564D4450560A00564D44509D
:101FDA00525F00564D4450455F003A323A007C0049
:101FEA005F564D4450450054657374206D65737394
:101FFA006167650074657374696E670050696E2065
:0A200A005374617465733A0D0A0007
:00000001FF
